{
  "contractName": "Poseidon",
  "abi": [
    {
      "inputs": [
        {
          "internalType": "address",
          "name": "user",
          "type": "address"
        }
      ],
      "name": "fetUserData",
      "outputs": [
        {
          "internalType": "uint256",
          "name": "",
          "type": "uint256"
        },
        {
          "internalType": "uint256",
          "name": "",
          "type": "uint256"
        }
      ],
      "stateMutability": "view",
      "type": "function"
    }
  ],
  "bytecode": "0x608060405234801561001057600080fd5b50610254806100206000396000f3fe608060405234801561001057600080fd5b506004361061002b5760003560e01c8063225acdb414610030575b600080fd5b6100726004803603602081101561004657600080fd5b81019080803573ffffffffffffffffffffffffffffffffffffffff16906020019092919050505061008f565b604051808381526020018281526020019250505060405180910390f35b60008060007388757f2f99175387ab4c6a4b3067c77a695b0349905060008173ffffffffffffffffffffffffffffffffffffffff16630261bf8b6040518163ffffffff1660e01b815260040160206040518083038186803b1580156100f357600080fd5b505afa158015610107573d6000803e3d6000fd5b505050506040513d602081101561011d57600080fd5b810190808051906020019092919050505090506000808273ffffffffffffffffffffffffffffffffffffffff1663bf92857c886040518263ffffffff1660e01b8152600401808273ffffffffffffffffffffffffffffffffffffffff16815260200191505060c06040518083038186803b15801561019a57600080fd5b505afa1580156101ae573d6000803e3d6000fd5b505050506040513d60c08110156101c457600080fd5b8101908080519060200190929190805190602001909291908051906020019092919080519060200190929190805190602001909291908051906020019092919050505095509550505050508181955095505050505091509156fea26469706673582212208ff623bbf33cd1c3fd13b49d4335d239789d375679e9e3b93ac5162de5efa25564736f6c634300060c0033",
  "immutableReferences": {},
  "source": "// SPDX-License-Identifier: MIT\npragma solidity >=0.4.22 <0.8.0;\n// pragma solidity ^0.6.6;\n\nimport \"./ILendingPoolAddressesProvider.sol\";\nimport \"./ILendingPool.sol\";\n\n\ncontract Poseidon {\n\n    address constant lendingPoolAddressProvider = 0x88757f2f99175387aB4C6a4b3067c77A695b0349;\n\n    function fetUserData(address user) public view returns( uint, uint){\n        ILendingPoolAddressesProvider addressProvider = ILendingPoolAddressesProvider(lendingPoolAddressProvider);\n  \n        ILendingPool lendingPool = ILendingPool(addressProvider.getLendingPool());\n        (,,,, uint256 ltv, uint256 healthFactor) = lendingPool.getUserAccountData(user);\n        return ( ltv, healthFactor);\n    }\n}",
  "sourcePath": "/home/versilio/VERSILIO/Techworks/Blockchain/Market Make/poseidon-lb/contracts/Poseidon.sol",
  "compiler": {
    "name": "solc",
    "version": "0.6.12+commit.27d51765.Emscripten.clang"
  },
  "schemaVersion": "3.3.2",
  "updatedAt": "2021-01-31T14:40:38.838Z",
  "devdoc": {
    "kind": "dev",
    "methods": {},
    "version": 1
  },
  "userdoc": {
    "kind": "user",
    "methods": {},
    "version": 1
  }
}